:100000000EC016C014C013C012C011C010C00FC063
:100010000EC00DC00CC00BC00AC009C008C011241E
:100020001FBECFE5D1E0DEBFCDBF30D083C0E8CF6B
:100030001F920F920FB60F9211242F933F938F931D
:100040009F93EF93FF93C098C298C598C39AC49AA0
:1000500080E29EE42EE130E0F9013197F1F701975B
:10006000D9F7C498C59AFF91EF919F918F913F91D5
:100070002F910F900FBE0F901F901895789480E4E9
:100080008BBF85B7816085BFF89408958FE387BBE8
:10009000789480E48BBF85B7816085BFF8944EE18A
:1000A00050E0C09AC298C39880E29EE4FA0131976A
:1000B000F1F70197D9F720E030E013C0FA0131974A
:1000C000F1F70197D9F7C09888EB9BE0FA013197D7
:1000D000F1F70197D9F7C09A2F5F3F4F24303105D0
:1000E00019F088EB9BE0EACF88EB9BE0FA013197AF
:1000F000F1F70197D9F7C098C29AC39880E197E2C7
:10010000FA013197F1F70197D9F7C098C298C39ACD
:1001100080E29EE4FA013197F1F70197D9F7C09890
:10012000C29AC39880E197E2FA013197F1F70197FB
:08013000D9F7B7CFF894FFCF17
:00000001FF
